:100000000C9463000C948B000C948B000C944105B1
:100010000C9441050C9441050C948B000C948B00BE
:100020000C948B000C948B000C948B000C948B0024
:100030000C948B000C948B000C948B000C948B0014
:100040000C94F7040C948B000C94C5040C949F043E
:100050000C948B000C948B000C948B000C948B00F4
:100060000C948B000C948B000000000024002700EF
:100070002A0000000008000201000003040700003D
:1000800000000000000000000000230026002900FE
:1000900000000000250028002B00040404040404D0
:1000A0000404020202020202030303030303010227
:1000B00004081020408001020408102001020408F6
:1000C0001020B905D40811241FBECFEFD8E0DEBF41
:1000D000CDBF23E0A6EEB1E001C01D92A131B20771
:1000E000E1F711E0A0E0B1E0EAECF8E102C0059030
:1000F0000D92A63EB107D9F710E0C2E6D0E004C0E9
:100100002197FE010E94600AC136D107C9F70E94FB
:10011000E2060C94580C0C94000081E480937C005F
:1001200080917A00806480937A0080917A0086FDC5
:10013000FCCF80917800909179000895AF92BF92A2
:10014000CF92DF92EF92FF920F931F93CF93DF93A3
:100150006C017B018B01040F151FEB015E01AE18D2
:10016000BF08C017D10759F06991D601ED91FC91F4
:100170000190F081E02DC6010995892B79F7C50121
:10018000DF91CF911F910F91FF90EF90DF90CF9073
:10019000BF90AF900895FC01538D448D252F30E022
:1001A000842F90E0821B930B541710F0CF96089584
:1001B00001970895FC01918D828D981761F0A28DB1
:1001C000AE0FBF2FB11D5D968C91928D9F5F9F7377
:1001D000928F90E008958FEF9FEF0895FC01918D2D
:1001E000828D981731F0828DE80FF11D858D90E09A
:1001F00008958FEF9FEF0895FC01918D228D892F37
:1002000090E0805C9F4F821B91098F73992708951E
:1002100083E392E00E94FC0021E0892B09F420E0B6
:10022000822F089580E090E0892B29F00E94080138
:1002300081110C9400000895FC01A48DA80FB92F22
:10024000B11DA35ABF4F2C91848D90E001968F73FE
:100250009927848FA689B7892C93A089B1898C911D
:10026000837080648C93938D848D981306C002886C
:10027000F389E02D80818F7D80830895EF92FF9236
:100280000F931F93CF93DF93EC0181E0888F9B8DB9
:100290008C8D98131AC0E889F989808185FF15C073
:1002A0009FB7F894EE89FF896083E889F989808196
:1002B0008370806480839FBF81E090E0DF91CF9165
:1002C0001F910F91FF90EF900895F62E0B8D10E087
:1002D0000F5F1F4F0F731127E02E8C8D8E110CC0F6
:1002E0000FB607FCFACFE889F989808185FFF5CF41
:1002F000CE010E941C01F1CFEB8DEC0FFD2FF11D03
:10030000E35AFF4FF0829FB7F8940B8FEA89FB897D
:1003100080818062CFCFCF93DF93EC01888D8823DB
:10032000B9F0AA89BB89E889F9898C9185FD03C058
:10033000808186FD0DC00FB607FCF7CF8C9185FF3D
:10034000F2CF808185FFEDCFCE010E941C01E9CF65
:10035000DF91CF91089590E0FC01EE58FF4F24917A
:10036000FC01E255FF4F3491FC01E656FF4FE4914A
:10037000EE23C9F0222339F0233001F1A8F4213013
:1003800019F1223029F1F0E0EE0FFF1FE057FF4F87
:10039000A591B4918FB7F894EC91611126C0309576
:1003A0003E233C938FBF08952730A9F02830C9F031
:1003B000243049F7809180008F7D03C080918000B8
:1003C0008F7780938000DFCF84B58F7784BDDBCFBC
:1003D00084B58F7DFBCF8091B0008F778093B00084
:1003E000D2CF8091B0008F7DF9CF3E2BDACFCF9363
:1003F000DF9390E0FC01E255FF4F249186569F4F1A
:10040000FC0184918823D1F090E0880F991FFC01B2
:10041000E859FF4FA591B491FC01E057FF4FC591FA
:10042000D49161110EC09FB7F8948C91E22FE095A2
:100430008E238C932881E223E8839FBFDF91CF91A5
:1004400008958FB7F894EC91E22BEC938FBFF6CF21
:100450003FB7F89480912B0290912C02A0912D022D
:10046000B0912E0226B5A89B05C02F3F19F001962A
:10047000A11DB11D3FBFBA2FA92F982F8827BC01FE
:10048000CD01620F711D811D911D42E0660F771F26
:10049000881F991F4A95D1F708958F929F92AF9226
:1004A000BF92CF92DF92EF92FF924B015C010E94CC
:1004B00028026B017C010E9428026C197D098E09BB
:1004C0009F09683E734081059105A8F321E0821AD7
:1004D0009108A108B10888EEC80E83E0D81EE11C7F
:1004E000F11C81149104A104B10429F7FF90EF904D
:1004F000DF90CF90BF90AF909F908F900895209104
:100500003102309132022817390771F490912F028D
:1005100080913002981741F0E0912F02F0E0EA510B
:10052000FE4F808190E008958FEF9FEF089508952A
:10053000EF92FF920F931F93CF93DF93DC015C96B2
:10054000ED90FC905D97E114F10479F481E090E086
:1005500013969C938E93129790E080E0DF91CF9159
:100560001F910F91FF90EF9008955196ED91FC919E
:10057000529750968C915097982F90950FB75E9602
:100580002C915E97122F127021FD6095F8942081B6
:10059000112319F1282B2083E7012197F1F728E097
:1005A000462F50E0308160FF1AC0382B3083E701BE
:1005B0002197F1F7BA0175956795215089F71123B5
:1005C00081F08081892380830FBF5C968D919C91FF
:1005D0000197F1F781E090E0C1CF2923DCCF3923E7
:1005E000E5CF9081892BEFCF2091310230913202FB
:1005F0002817390761F48091300220912F0290E092
:10060000805C9F4F821B91098F739927089590E01A
:1006100080E0089520913102309132022817390785
:10062000B9F490912F0280913002981789F0E091EF
:100630002F02F0E0EA51FE4F808120912F0230E03E
:100640002F5F3F4F2F73332720932F0290E00895A1
:100650008FEF9FEF0895089590E080E00895CF9385
:10066000DF93EC0160E08E810E94AB0161E08E813E
:100670000E94AB0160E08E810E94AB018BE891E0AB
:100680000197F1F7DF91CF910895CF92DF92EF922A
:10069000FF920F931F93CF93DF936C017C0187E050
:1006A000E80EF11CD0E0C0E0062F10E0B8010C2EDF
:1006B00002C0759567950A94E2F76170F701819120
:1006C0007F010E94AB012196C430D10579F7C601A4
:1006D000DF91CF911F910F91FF90EF90DF90CF901E
:1006E0000C942F03CF92DF92EF92FF920F931F9300
:1006F000CF93DF93EC01F62E642F8C810E94AB0127
:100700008D818F3F19F060E00E94AB010F2D10E04A
:100710008F8584FF25C06E0187E0C80ED11CF12CA7
:10072000E12CB8010E2C02C0759567950A94E2F78A
:100730006170F60181916F010E94AB01FFEFEF1A2A
:10074000FF0A88E0E816F10461F7CE01DF91CF914E
:100750001F910F91FF90EF90DF90CF900C942F039B
:10076000B80184E0759567958A95E1F7CE010E94FE
:1007700045036F2DCE01DF91CF911F910F91FF9017
:10078000EF90DF90CF900C94450340E0682F85EF09
:1007900092E00C94720381E00E94C5038BE39FE119
:1007A0000197F1F70895CF93DF93823029F4909168
:1007B0000403986090930403809308031092090344
:1007C00080E480930A0380E180930B0380E58093AB
:1007D0000C0361E08091F9020E94F7018091FA0216
:1007E0008F3F19F061E00E94F70161E08091FB0208
:1007F0000E94F701C5EFD2E09E01255F3240809153
:10080000040384FD0BC084E090E02196281739078B
:1008100044F461E08E810E94F701EECF88E090E021
:10082000F4CF8BE39DE00197F1F760E08091F9024E
:100830000E94AB0160E08091FB020E94AB018091BD
:10084000FA028F3F19F060E00E94AB01809104032F
:1008500084FD34C063E085EF92E00E944503CBE461
:10086000D6E4CE010197F1F763E085EF92E00E94B4
:1008700045032197F1F763E085EF92E00E9445037D
:1008800083E592E00197F1F762E085EF92E00E9444
:1008900045038091040380620E94C50384E0809335
:1008A00005038CE00E94C5030E94CB0382E0809385
:1008B000060386E0DF91CF910C94C50380620E940D
:1008C000C5038BE496E40197F1F7809104038062FD
:1008D0000E94C50383E592E00197F1F7809104033C
:1008E00080620E94C503D5CF90910803891710F04C
:1008F0008FEF890FE82FF0E0EB50FD4F848980687F
:100900000C94C50341E00E94720381E090E00895D9
:10091000FB0101900020E9F73197AF01461B570B0F
:10092000DC01ED91FC910280F381E02D099442E01D
:1009300050E066E371E083E392E00C949E001F9226
:100940000F920FB60F9211242F933F934F935F9303
:100950006F937F938F939F93AF93BF93EF93FF9387
:1009600083E392E00E941C01FF91EF91BF91AF9150
:100970009F918F917F916F915F914F913F912F91B7
:100980000F900FBE0F901F9018951F920F920FB6E9
:100990000F9211242F938F939F93EF93FF93E091E6
:1009A0004302F09144028081E0914902F0914A02B1
:1009B00082FD1BC0908180914C028F5F8F732091CC
:1009C0004D02821741F0E0914C02F0E0ED5CFD4FEA
:1009D000958F80934C02FF91EF919F918F912F9172
:1009E0000F900FBE0F901F9018958081F4CF1F922B
:1009F0000F920FB60F9211242F933F938F939F93D3
:100A0000AF93BF938091270290912802A091290271
:100A1000B0912A023091260223E0230F2D3758F59A
:100A20000196A11DB11D2093260280932702909369
:100A30002802A0932902B0932A0280912B02909160
:100A40002C02A0912D02B0912E020196A11DB11D84
:100A500080932B0290932C02A0932D02B0932E0230
:100A6000BF91AF919F918F913F912F910F900FBEAA
:100A70000F901F90189526E8230F0296A11DB11D17
:100A8000D2CF1F920F920FB60F9211242F933F9344
:100A90004F935F936F937F938F939F93AF93BF9386
:100AA000EF93FF93E0913102F0913202309749F0D9
:100AB000A685B7858585968D91FF14C09C91892365
:100AC000A1F4FF91EF91BF91AF919F918F917F9191
:100AD0006F915F914F913F912F910F900FBE0F90AB
:100AE0001F9018959C91892361F7A389B4899C91E3
:100AF0008589809589238C93868997890197F1F759
:100B0000608D718DA685B785558538E020E0CB01D5
:100B10000197F1F7822F90E095958795282F4C91BA
:100B2000452309F02068315091F7868D81FD20958D
:100B30008091300290E001968F73992730912F02B7
:100B4000381799F0A0913002B0E0AA51BE4F2C9313
:100B500080933002828D938D0197F1F7A389B48938
:100B60008C919589892B8C93ACCF868D8160868FF3
:100B7000F1CFCF92DF92EF92FF9210923602109255
:100B8000350298EEC92E93E0D92EE12CF12CC092BB
:100B90003702D0923802E0923902F0923A028AE0AB
:100BA00091E0909334028093330285EC90E090932F
:100BB000400280933F0284EC90E090934202809345
:100BC000410280EC90E0909344028093430281ECD8
:100BD00090E0909346028093450282EC90E09093DF
:100BE00048028093470286EC90E090934A028093FB
:100BF000490210924C0210924D0210924E02109235
:100C00004F021092F8021092F7028EE291E0909358
:100C1000F6028093F5028CE08093F9028FEF8093C7
:100C2000FA028BE08093FB0285E08093FC0284E073
:100C30008093FD0283E08093FE0282E08093FF02B6
:100C4000109200031092010310920203109203030A
:100C50001092040381E00E94D3031092D9021092F3
:100C6000D802C092DA02D092DB02E092DC02F0926B
:100C7000DD028CE191E09093D7028093D60210922E
:100C8000ED021092EC021092EF021092EE0210921E
:100C9000F1021092F0021092F3021092F2026091AF
:100CA000F4026E7F6D7F6093F4026695617081E05F
:100CB00068278AE00E94AB0161E08AE00E94F701A8
:100CC000E8EBF0E0E491E093E602E4EAF0E0E4919E
:100CD000F0E0EE0FFF1FE057FF4F85919491909346
:100CE000E8028093E70260E089E00E94F7018091CA
:100CF000F40281FD04C061E089E00E94AB0189E05B
:100D00008093E202E7EBF0E0E491E093E302E3EAB0
:100D1000F0E0E491F0E0EE0FFF1FEA57FF4F8591FE
:100D200094919093E5028093E4021092D102109284
:100D3000D0021092D3021092D2021092D5021092D9
:100D4000D40261E070E090E080E00E948B0B00979D
:100D500001F19093D1028093D0021092D3021092AD
:100D6000D2022091D4023091D502232B11F4FC0140
:100D700010821092D5021092D40268E371E0809143
:100D8000D0029091D102FF90EF90DF90CF900C9421
:100D9000510C8091D0029091D102009711F00E94E5
:100DA000020B1092D1021092D0021092D502109232
:100DB000D4021092D3021092D202FF90EF90DF90F3
:100DC000CF900895789484B5826084BD84B58160A5
:100DD00084BD85B5826085BD85B5816085BD809106
:100DE0006E00816080936E0010928100809181007E
:100DF0008260809381008091810081608093810076
:100E0000809180008160809380008091B100846037
:100E10008093B1008091B00081608093B000809198
:100E20007A00846080937A0080917A008260809357
:100E30007A0080917A00816080937A0080917A00B4
:100E4000806880937A001092C10082E00E94D303F0
:100E500064E670E080E090E00E944D0261E081E095
:100E60000E94F70161E086E00E94F70160E08FE0F8
:100E70000E94F7011092F1021092F0021092EF021C
:100E80001092EE021092ED021092EC028DE991E0C8
:100E90009093F3028093F2029091E202963108F06F
:100EA00047C02DEB30E03093ED022093EC022BE9AC
:100EB00031E03093EF022093EE022CE231E03093E8
:100EC000F1022093F0022091680084E0983048F00D
:100ED00031E09E3008F430E081E001C0880F3A959F
:100EE000EAF7822B809368002DE630E0983050F0CE
:100EF0002BE630E09E3030F02CE630E0963110F0FA
:100F000030E020E03093EA022093E902292F30E01C
:100F1000983008F027C181E001C0880F9A95EAF760
:100F20008093EB028091F2029091F3020197F1F726
:100F30008091F0029091F102892B49F1E091310208
:100F4000F091320282E0E63DF80709F1309739F07E
:100F5000A389B4899C918589809589238C938091FC
:100F6000F4028E7F8093F4021092300210922F02CE
:100F700086ED92E09093320280933102E091E90293
:100F8000F091EA0280819091EB02892B8083E091BD
:100F90004302F091440282E08083E0913F02F091AD
:100FA00040021082E0914102F09142028FEC808376
:100FB00010924B02E0914702F091480286E0808354
:100FC000E0914502F0914602808180618083E0914A
:100FD0004502F0914602808188608083E09145025D
:100FE000F0914602808180688083E0914502F09113
:100FF000460280818F7D8083C0E0D0E00E948D001A
:101000000E948D00BC01990F880B990B0E94FA0871
:1010100020E030E040EA50E40E94350920E030E072
:1010200048EC52E40E94350920E030E040E85AE301
:101030000E9435096B017C0162E370E080E090E082
:101040000E944D02C701B6010E942A0A653171054E
:101050000CF495C00E94CB0380E00E94740469E305
:1010600071E085EF92E00E94880481E00E947404A0
:1010700069E471E085EF92E00E94880464E670E024
:1010800080E090E00E944D020E94CB0369E571E090
:1010900085EF92E00E94880464E670E080E090E0D2
:1010A0000E944D0261E086E00E94AB0168EC70E0B6
:1010B00080E090E00E944D0260E086E00E94AB017B
:1010C00068EC70E080E090E00E944D0261E086E014
:1010D0000E94AB0168EC70E080E090E00E944D025D
:1010E00060E086E00E94AB0165E070E080E090E0A7
:1010F0000E944D0268E671E083E392E00E9488045A
:1011000064E670E080E090E00E944D0263E771E0E9
:1011100083E392E00E9488046CE871E083E392E04C
:101120000E94880468EC70E080E090E00E944D022C
:101130006AE183E392E00E943E010E94970468EC1A
:1011400070E080E090E00E944D020E94970420979A
:1011500009F454CF0E940801882309F44FCF0E945C
:1011600000004CCF9E3040F42850310981E001C08E
:10117000880F2A95EAF7D4CE2E503109F7CF0E9476
:10118000CB0380E00E94740465EC71E085EF92E08F
:101190000E94880481E00E94740467ED71E085EF8D
:1011A00092E00E948804D3CF8091D0029091D10226
:1011B000009711F00E94020B8CE191E09093D7020E
:1011C0008093D6028091310290913202865D9240E6
:1011D00071F4E091E902F091EA0290818091EB02D2
:1011E00080958923808310923202109231020895F3
:1011F000E89409C097FB3EF49095809570956195B1
:101200007F4F8F4F9F4F9923A9F0F92F96E9BB2766
:101210009395F695879577956795B795F111F8CFE2
:10122000FAF4BB0F11F460FF1BC06F5F7F4F8F4F4D
:101230009F4F16C0882311F096E911C0772321F043
:101240009EE8872F762F05C0662371F096E8862FDB
:1012500070E060E02AF09A95660F771F881FDAF732
:10126000880F9695879597F908950E9448090C94E0
:10127000B9090E94AB0938F00E94B20920F0952309
:1012800011F00C94A2090C94A80911240C94ED09F6
:101290000E94CA0970F3959FC1F3950F50E0551F46
:1012A000629FF001729FBB27F00DB11D639FAA27BB
:1012B000F00DB11DAA1F649F6627B00DA11D661F0A
:1012C000829F2227B00DA11D621F739FB00DA11D2B
:1012D000621F839FA00D611D221F749F3327A00DE5
:1012E000611D231F849F600D211D822F762F6A2F81
:1012F00011249F5750409AF0F1F088234AF0EE0FE6
:10130000FF1FBB1F661F771F881F91505040A9F712
:101310009E3F510580F00C94A2090C94ED095F3FAB
:10132000E4F3983ED4F3869577956795B795F7954E
:10133000E7959F5FC1F7FE2B880F911D96958795C6
:1013400097F9089597F99F6780E870E060E0089545
:101350009FEF80EC089500240A94161617061806CD
:101360000906089500240A941216130614060506A9
:101370000895092E0394000C11F4882352F0BB0F3A
:1013800040F4BF2B11F460FF04C06F5F7F4F8F4F9D
:101390009F4F089557FD9058440F551F59F05F3FD8
:1013A00071F04795880F97FB991F61F09F3F79F087
:1013B00087950895121613061406551FF2CF469509
:1013C000F1DF08C0161617061806991FF1CF86958B
:1013D0007105610508940895E894BB27662777276F
:1013E000CB0197F908952F923F924F925F926F929F
:1013F0007F928F929F92AF92BF92CF92DF92EF92A5
:10140000FF920F931F93CF93DF93CDB7DEB7CA1B25
:10141000DB0B0FB6F894DEBF0FBECDBF09942A8850
:10142000398848885F846E847D848C849B84AA84F8
:10143000B984C884DF80EE80FD800C811B81AA8185
:10144000B981CE0FD11D0FB6F894DEBF0FBECDBF50
:10145000ED0108950E94310A6894B1110C94ED09D0
:1014600008950E94D20988F09F5798F0B92F9927C4
:10147000B751B0F0E1F0660F771F881F991F1AF07F
:10148000BA95C9F714C0B13091F00E94EC09B1E0EF
:1014900008950C94EC09672F782F8827B85F39F0EE
:1014A000B93FCCF3869577956795B395D9F73EF418
:1014B00090958095709561957F4F8F4F9F4F0895C0
:1014C000EE0FFF1F0590F491E02D09940F931F93E9
:1014D000CF93DF938230910510F482E090E0E091A9
:1014E0000F03F091100330E020E0B0E0A0E030976F
:1014F00099F42115310509F44AC0281B390B243011
:101500003105D8F58A819B816115710589F1FB014F
:1015100093838283FE0111C0408151810281138136
:1015200048175907E0F04817590799F4109761F0E8
:1015300012960C93129713961C933296CF01DF915B
:10154000CF911F910F91089500930F0310931003F3
:10155000F4CF2115310551F04217530738F0A90196
:10156000DB019A01BD01DF01F801C1CFEF01F9CF25
:101570009093100380930F03CDCFFE01E20FF31F72
:10158000819391932250310939832883D7CF2091B9
:101590000D0330910E03232B41F420910201309171
:1015A000030130930E0320930D032091000130912D
:1015B00001012115310541F42DB73EB740910401D9
:1015C00050910501241B350BE0910D03F0910E03A2
:1015D000E217F307A0F42E1B3F0B2817390778F00A
:1015E000AC014E5F5F4F2417350748F04E0F5F1F69
:1015F00050930E0340930D03819391939FCFF0E09E
:10160000E0E09CCFCF93DF930097E9F0FC013297A5
:1016100013821282A0910F03B0911003ED0130E00C
:1016200020E01097A1F420813181820F931F209137
:101630000D0330910E032817390709F061C0F093AC
:101640000E03E0930D03DF91CF910895EA01CE17C9
:10165000DF07E8F54A815B819E0141155105B1F72D
:10166000E901FB83EA8349915991C40FD51FEC1717
:10167000FD0761F4808191810296840F951FE90135
:1016800099838883828193819B838A83F0E0E0E061
:1016900012968D919C9113970097B9F52D913C91DD
:1016A0001197CD010296820F931F20910D03309167
:1016B0000E032817390739F6309751F510921003A9
:1016C00010920F03B0930E03A0930D03BCCFD383EE
:1016D000C28340815181840F951FC817D90761F4D7
:1016E0004E5F5F4F88819981480F591F5183408316
:1016F0008A819B81938382832115310509F0B0CFC4
:10170000F0931003E0930F039ECFFD01DC01C0CFE7
:1017100013821282D7CFB0E0A0E0E1E9FBE00C94A5
:10172000F5098C01009751F4CB010E94660A8C01E7
:10173000C801CDB7DEB7E0E10C94110AFC01E60F59
:10174000F71F9C0122503109E217F30708F49DC0EE
:10175000D901CD91DC911197C617D70798F0C53004
:10176000D10530F3CE0104978617970708F3C61BFF
:10177000D70B2297C193D1936D937C93CF010E9495
:10178000020BD6CF5B01AC1ABD0A4C018C0E9D1E1C
:10179000A0910F03B0911003512C412CF12CE12C9E
:1017A000109731F580910D0390910E0388159905DE
:1017B00009F05CC04616570608F058C08091000139
:1017C00090910101009741F48DB79EB740910401BB
:1017D00050910501841B950BE817F90708F055C0D7
:1017E000F0930E03E0930D03F90171836083A0CFA2
:1017F0008D919C91119712966C90129713967C90F4
:101800001397A815B90559F56C0142E0C40ED11C17
:10181000CA14DB0420F1AC014A195B09DA01129603
:10182000159780F06282738251834083D9016D9352
:101830007C93E114F10471F0D7011396FC93EE93BD
:10184000129776CF22968C0F9D1FF901918380838A
:10185000F301EFCFF0931003E0930F0369CF481625
:10186000590608F42C017D01D3019ACFCB010E94C7
:10187000660A7C01009749F0AE01B8010E94480C4D
:10188000C8010E94020B870153CF10E000E050CF47
:10189000FB01DC0102C001900D9241505040D8F78D
:1018A0000895FB01DC0101900D920020E1F70895FD
:1018B00010E0C2E6D0E004C0FE010E94600A21965A
:0A18C000C336D107C9F7F894FFCF33
:1018CA00000011038000000000003E019E00CB00D2
:1018DA008B01FC00DA00EE000000000098029E0076
:1018EA002C039702F4020A037F020000000082041C
:1018FA009E002C032B030D0A002020544845524514
:10190A00204953204741532000204E4F5420534131
:10191A0046452048455245200053656E64696E6706
:10192A0020534D532E2E2E0041542B434D47463DF6
:10193A00310D0041542B434D47533D222B3932334D
:10194A00303536313931333833220D00474153208F
:10195A00414C4552542120506C65617365204265A3
:10196A0020496E666F726D656420746861742047E1
:10197A006173204C65616B616765204F63637572A3
:10198A006564210D00204E4F2047415320204C65AD
:10199A00616B6167652000202020414C4C20534137
:0619AA004645202020004C
:00000001FF
